{"abi":[{"type":"constructor","inputs":[],"stateMutability":"nonpayable"},{"type":"receive","stateMutability":"payable"},{"type":"function","name":"allowance","inputs":[{"name":"owner","type":"address","internalType":"address"},{"name":"spender","type":"address","internalType":"address"}],"outputs":[{"name":"","type":"uint256","internalType":"uint256"}],"stateMutability":"view"},{"type":"function","name":"approve","inputs":[{"name":"spender","type":"address","internalType":"address"},{"name":"value","type":"uint256","internalType":"uint256"}],"outputs":[{"name":"","type":"bool","internalType":"bool"}],"stateMutability":"nonpayable"},{"type":"function","name":"balanceOf","inputs":[{"name":"account","type":"address","internalType":"address"}],"outputs":[{"name":"","type":"uint256","internalType":"uint256"}],"stateMutability":"view"},{"type":"function","name":"decimals","inputs":[],"outputs":[{"name":"","type":"uint8","internalType":"uint8"}],"stateMutability":"view"},{"type":"function","name":"deposit","inputs":[],"outputs":[],"stateMutability":"payable"},{"type":"function","name":"mint","inputs":[{"name":"to","type":"address","internalType":"address"},{"name":"amount","type":"uint256","internalType":"uint256"}],"outputs":[],"stateMutability":"nonpayable"},{"type":"function","name":"name","inputs":[],"outputs":[{"name":"","type":"string","internalType":"string"}],"stateMutability":"view"},{"type":"function","name":"symbol","inputs":[],"outputs":[{"name":"","type":"string","internalType":"string"}],"stateMutability":"view"},{"type":"function","name":"totalSupply","inputs":[],"outputs":[{"name":"","type":"uint256","internalType":"uint256"}],"stateMutability":"view"},{"type":"function","name":"transfer","inputs":[{"name":"to","type":"address","internalType":"address"},{"name":"value","type":"uint256","internalType":"uint256"}],"outputs":[{"name":"","type":"bool","internalType":"bool"}],"stateMutability":"nonpayable"},{"type":"function","name":"transferFrom","inputs":[{"name":"from","type":"address","internalType":"address"},{"name":"to","type":"address","internalType":"address"},{"name":"value","type":"uint256","internalType":"uint256"}],"outputs":[{"name":"","type":"bool","internalType":"bool"}],"stateMutability":"nonpayable"},{"type":"function","name":"withdraw","inputs":[{"name":"amount","type":"uint256","internalType":"uint256"}],"outputs":[],"stateMutability":"nonpayable"},{"type":"event","name":"Approval","inputs":[{"name":"owner","type":"address","indexed":true,"internalType":"address"},{"name":"spender","type":"address","indexed":true,"internalType":"address"},{"name":"value","type":"uint256","indexed":false,"internalType":"uint256"}],"anonymous":false},{"type":"event","name":"Deposit","inputs":[{"name":"dst","type":"address","indexed":true,"internalType":"address"},{"name":"wad","type":"uint256","indexed":false,"internalType":"uint256"}],"anonymous":false},{"type":"event","name":"Transfer","inputs":[{"name":"from","type":"address","indexed":true,"internalType":"address"},{"name":"to","type":"address","indexed":true,"internalType":"address"},{"name":"value","type":"uint256","indexed":false,"internalType":"uint256"}],"anonymous":false},{"type":"event","name":"Withdrawal","inputs":[{"name":"src","type":"address","indexed":true,"internalType":"address"},{"name":"wad","type":"uint256","indexed":false,"internalType":"uint256"}],"anonymous":false},{"type":"error","name":"ERC20InsufficientAllowance","inputs":[{"name":"spender","type":"address","internalType":"address"},{"name":"allowance","type":"uint256","internalType":"uint256"},{"name":"needed","type":"uint256","internalType":"uint256"}]},{"type":"error","name":"ERC20InsufficientBalance","inputs":[{"name":"sender","type":"address","internalType":"address"},{"name":"balance","type":"uint256","internalType":"uint256"},{"name":"needed","type":"uint256","internalType":"uint256"}]},{"type":"error","name":"ERC20InvalidApprover","inputs":[{"name":"approver","type":"address","internalType":"address"}]},{"type":"error","name":"ERC20InvalidReceiver","inputs":[{"name":"receiver","type":"address","internalType":"address"}]},{"type":"error","name":"ERC20InvalidSender","inputs":[{"name":"sender","type":"address","internalType":"address"}]},{"type":"error","name":"ERC20InvalidSpender","inputs":[{"name":"spender","type":"address","internalType":"address"}]}],"bytecode":{"object":"0x6080604052346103c357604080519081016001600160401b038111828210176102cb576040908152600d82526c2bb930b83832b21022ba3432b960991b602083015280519081016001600160401b038111828210176102cb5760405260048152630ae8aa8960e31b602082015281516001600160401b0381116102cb57600354600181811c911680156103b9575b60208210146102ad57601f811161034b575b50602092601f82116001146102ea57928192935f926102df575b50508160011b915f199060031b1c1916176003555b80516001600160401b0381116102cb57600454600181811c911680156102c1575b60208210146102ad57601f811161023f575b50602091601f82116001146101df579181925f926101d4575b50508160011b915f199060031b1c1916176004555b33156101c157600254683635c9adc5dea0000081018091116101ad57600255335f525f60205260405f20683635c9adc5dea000008154019055604051683635c9adc5dea0000081525f7fddf252ad1be2c89b69c2b068fc378daa952ba7f163c4a11628f55a4df523b3ef60203393a36040516108bb90816103c88239f35b634e487b7160e01b5f52601160045260245ffd5b63ec442f0560e01b5f525f60045260245ffd5b015190505f8061011a565b601f1982169260045f52805f20915f5b8581106102275750836001951061020f575b505050811b0160045561012f565b01515f1960f88460031b161c191690555f8080610201565b919260206001819286850151815501940192016101ef565b818111156101015760045f52601f820160051c7f8a35acfbc15ff81a39ae7d344fd709f28e8600b4aa8c65c6b64bfe7fe36bd19b602084106102a5575b81601f9101920160051c03905f5b828110610298575050610101565b5f8282015560010161028a565b5f915061027c565b634e487b7160e01b5f52602260045260245ffd5b90607f16906100ef565b634e487b7160e01b5f52604160045260245ffd5b015190505f806100b9565b601f1982169360035f52805f20915f5b868110610333575083600195961061031b575b505050811b016003556100ce565b01515f1960f88460031b161c191690555f808061030d565b919260206001819286850151815501940192016102fa565b8181111561009f5760035f52601f820160051c7fc2575a0e9e593c00f959f8c92f12db2869c3395a3b0502d05e2516446f71f85b602084106103b1575b81601f9101920160051c03905f5b8281106103a457505061009f565b5f82820155600101610396565b5f9150610388565b90607f169061008d565b5f80fdfe6080806040526004361015610024575b50361561001a575f80fd5b61002261072f565b005b5f3560e01c90816306fdde03146105ff57508063095ea7b31461057d57806318160ddd1461056057806323b872dd146104815780632e1a7d4d146102c7578063313ce567146102ac57806340c10f191461028757806370a082311461025057806395d89b411461014c578063a9059cbb1461011b578063d0e30db0146101085763dd62ed3e146100b4575f61000f565b34610104576040366003190112610104576100cd6106e1565b6100d56106f7565b6001600160a01b039182165f908152600160209081526040808320949093168252928352819020549051908152f35b5f80fd5b5f3660031901126101045761002261072f565b34610104576040366003190112610104576101416101376106e1565b6024359033610767565b602060405160018152f35b34610104575f366003190112610104576040515f6004548060011c90600181168015610246575b6020831081146102325782855290811561020e57506001146101b0575b6101ac836101a08185038261070d565b604051918291826106b7565b0390f35b91905060045f527f8a35acfbc15ff81a39ae7d344fd709f28e8600b4aa8c65c6b64bfe7fe36bd19b915f905b8082106101f4575090915081016020016101a0610190565b9192600181602092548385880101520191019092916101dc565b60ff191660208086019190915291151560051b840190910191506101a09050610190565b634e487b7160e01b5f52602260045260245ffd5b91607f1691610173565b34610104576020366003190112610104576001600160a01b036102716106e1565b165f525f602052602060405f2054604051908152f35b34610104576040366003190112610104576100226102a36106e1565b60243590610811565b34610104575f36600319011261010457602060405160128152f35b3461010457602036600319011261010457600435335f525f6020528060405f20541061043c57331561042957335f525f6020528060405f205481811061041057335f525f6020520360405f205580600254036002555f6040518281527fddf252ad1be2c89b69c2b068fc378daa952ba7f163c4a11628f55a4df523b3ef60203392a35f80808084335af13d1561040b573d67ffffffffffffffff81116103f7576040519061037f601f8201601f19166020018361070d565b81525f60203d92013e5b156103bc576040519081527f7fcf532c15f0a6db0bd6d0e038bea71d30d808c7d98cb3bf7268a95bf5081b6560203392a2005b60405162461bcd60e51b8152602060048201526013602482015272115512081d1c985b9cd9995c8819985a5b1959606a1b6044820152606490fd5b634e487b7160e01b5f52604160045260245ffd5b610389565b63391434e360e21b5f523360045260245260445260645ffd5b634b637e8f60e11b5f525f60045260245ffd5b60405162461bcd60e51b815260206004820152601960248201527f496e73756666696369656e7420574554482062616c616e6365000000000000006044820152606490fd5b346101045760603660031901126101045761049a6106e1565b6104a26106f7565b6001600160a01b0382165f818152600160209081526040808320338452909152902054909260443592915f1981106104e0575b506101419350610767565b83811061054557841561053257331561051f57610141945f52600160205260405f2060018060a01b0333165f526020528360405f2091039055846104d5565b634a1406b160e11b5f525f60045260245ffd5b63e602df0560e01b5f525f60045260245ffd5b8390637dc7a0d960e11b5f523360045260245260445260645ffd5b34610104575f366003190112610104576020600254604051908152f35b34610104576040366003190112610104576105966106e1565b602435903315610532576001600160a01b031690811561051f57335f52600160205260405f20825f526020528060405f20556040519081527f8c5be1e5ebec7d5bd14f71427d1e84f3dd0314c0f7b2291e5b200ac8c7c3b92560203392a3602060405160018152f35b34610104575f366003190112610104575f6003548060011c906001811680156106ad575b6020831081146102325782855290811561020e575060011461064f576101ac836101a08185038261070d565b91905060035f527fc2575a0e9e593c00f959f8c92f12db2869c3395a3b0502d05e2516446f71f85b915f905b808210610693575090915081016020016101a0610190565b91926001816020925483858801015201910190929161067b565b91607f1691610623565b602060409281835280519182918282860152018484015e5f828201840152601f01601f1916010190565b600435906001600160a01b038216820361010457565b602435906001600160a01b038216820361010457565b90601f8019910116810190811067ffffffffffffffff8211176103f757604052565b6107393433610811565b6040513481527fe1fffcc4923d04b559f4d29a8bfc6cda04eb5b0d3c460751c2402c5c5cc9109c60203392a2565b6001600160a01b0316908115610429576001600160a01b03169182156107fe57815f525f60205260405f20548181106107e557817fddf252ad1be2c89b69c2b068fc378daa952ba7f163c4a11628f55a4df523b3ef92602092855f525f84520360405f2055845f525f825260405f20818154019055604051908152a3565b8263391434e360e21b5f5260045260245260445260645ffd5b63ec442f0560e01b5f525f60045260245ffd5b6001600160a01b03169081156107fe57600254908082018092116108715760207fddf252ad1be2c89b69c2b068fc378daa952ba7f163c4a11628f55a4df523b3ef915f9360025584845283825260408420818154019055604051908152a3565b634e487b7160e01b5f52601160045260245ffdfea264697066735822122089296252af453a98d145e0a84e96392ad737f93476f5856cc7fccc4e3a09abac64736f6c63430008210033","linkReferences":{}},"methodIdentifiers":{"allowance(address,address)":"dd62ed3e","approve(address,uint256)":"095ea7b3","balanceOf(address)":"70a08231","decimals()":"313ce567","deposit()":"d0e30db0","mint(address,uint256)":"40c10f19","name()":"06fdde03","symbol()":"95d89b41","totalSupply()":"18160ddd","transfer(address,uint256)":"a9059cbb","transferFrom(address,address,uint256)":"23b872dd","withdraw(uint256)":"2e1a7d4d"},"id":0}