{"abi":[{"type":"constructor","inputs":[],"stateMutability":"nonpayable"},{"type":"function","name":"MINIMUM_LIQUIDITY","inputs":[],"outputs":[{"name":"","type":"uint256","internalType":"uint256"}],"stateMutability":"view"},{"type":"function","name":"allowance","inputs":[{"name":"owner","type":"address","internalType":"address"},{"name":"spender","type":"address","internalType":"address"}],"outputs":[{"name":"","type":"uint256","internalType":"uint256"}],"stateMutability":"view"},{"type":"function","name":"approve","inputs":[{"name":"spender","type":"address","internalType":"address"},{"name":"value","type":"uint256","internalType":"uint256"}],"outputs":[{"name":"","type":"bool","internalType":"bool"}],"stateMutability":"nonpayable"},{"type":"function","name":"balanceOf","inputs":[{"name":"account","type":"address","internalType":"address"}],"outputs":[{"name":"","type":"uint256","internalType":"uint256"}],"stateMutability":"view"},{"type":"function","name":"burn","inputs":[{"name":"to","type":"address","internalType":"address"}],"outputs":[{"name":"amount0","type":"uint256","internalType":"uint256"},{"name":"amount1","type":"uint256","internalType":"uint256"}],"stateMutability":"nonpayable"},{"type":"function","name":"decimals","inputs":[],"outputs":[{"name":"","type":"uint8","internalType":"uint8"}],"stateMutability":"view"},{"type":"function","name":"factory","inputs":[],"outputs":[{"name":"","type":"address","internalType":"address"}],"stateMutability":"view"},{"type":"function","name":"getReserves","inputs":[],"outputs":[{"name":"_reserve0","type":"uint112","internalType":"uint112"},{"name":"_reserve1","type":"uint112","internalType":"uint112"},{"name":"_blockTimestampLast","type":"uint32","internalType":"uint32"}],"stateMutability":"view"},{"type":"function","name":"initialize","inputs":[{"name":"_token0","type":"address","internalType":"address"},{"name":"_token1","type":"address","internalType":"address"}],"outputs":[],"stateMutability":"nonpayable"},{"type":"function","name":"kLast","inputs":[],"outputs":[{"name":"","type":"uint256","internalType":"uint256"}],"stateMutability":"view"},{"type":"function","name":"mint","inputs":[{"name":"to","type":"address","internalType":"address"}],"outputs":[{"name":"liquidity","type":"uint256","internalType":"uint256"}],"stateMutability":"nonpayable"},{"type":"function","name":"name","inputs":[],"outputs":[{"name":"","type":"string","internalType":"string"}],"stateMutability":"view"},{"type":"function","name":"price0CumulativeLast","inputs":[],"outputs":[{"name":"","type":"uint256","internalType":"uint256"}],"stateMutability":"view"},{"type":"function","name":"price1CumulativeLast","inputs":[],"outputs":[{"name":"","type":"uint256","internalType":"uint256"}],"stateMutability":"view"},{"type":"function","name":"swap","inputs":[{"name":"amount0Out","type":"uint256","internalType":"uint256"},{"name":"amount1Out","type":"uint256","internalType":"uint256"},{"name":"to","type":"address","internalType":"address"},{"name":"data","type":"bytes","internalType":"bytes"}],"outputs":[],"stateMutability":"nonpayable"},{"type":"function","name":"symbol","inputs":[],"outputs":[{"name":"","type":"string","internalType":"string"}],"stateMutability":"view"},{"type":"function","name":"sync","inputs":[],"outputs":[],"stateMutability":"nonpayable"},{"type":"function","name":"token0","inputs":[],"outputs":[{"name":"","type":"address","internalType":"address"}],"stateMutability":"view"},{"type":"function","name":"token1","inputs":[],"outputs":[{"name":"","type":"address","internalType":"address"}],"stateMutability":"view"},{"type":"function","name":"totalSupply","inputs":[],"outputs":[{"name":"","type":"uint256","internalType":"uint256"}],"stateMutability":"view"},{"type":"function","name":"transfer","inputs":[{"name":"to","type":"address","internalType":"address"},{"name":"value","type":"uint256","internalType":"uint256"}],"outputs":[{"name":"","type":"bool","internalType":"bool"}],"stateMutability":"nonpayable"},{"type":"function","name":"transferFrom","inputs":[{"name":"from","type":"address","internalType":"address"},{"name":"to","type":"address","internalType":"address"},{"name":"value","type":"uint256","internalType":"uint256"}],"outputs":[{"name":"","type":"bool","internalType":"bool"}],"stateMutability":"nonpayable"},{"type":"event","name":"Approval","inputs":[{"name":"owner","type":"address","indexed":true,"internalType":"address"},{"name":"spender","type":"address","indexed":true,"internalType":"address"},{"name":"value","type":"uint256","indexed":false,"internalType":"uint256"}],"anonymous":false},{"type":"event","name":"Burn","inputs":[{"name":"sender","type":"address","indexed":true,"internalType":"address"},{"name":"amount0","type":"uint256","indexed":false,"internalType":"uint256"},{"name":"amount1","type":"uint256","indexed":false,"internalType":"uint256"},{"name":"to","type":"address","indexed":true,"internalType":"address"}],"anonymous":false},{"type":"event","name":"Mint","inputs":[{"name":"sender","type":"address","indexed":true,"internalType":"address"},{"name":"amount0","type":"uint256","indexed":false,"internalType":"uint256"},{"name":"amount1","type":"uint256","indexed":false,"internalType":"uint256"}],"anonymous":false},{"type":"event","name":"Swap","inputs":[{"name":"sender","type":"address","indexed":true,"internalType":"address"},{"name":"amount0In","type":"uint256","indexed":false,"internalType":"uint256"},{"name":"amount1In","type":"uint256","indexed":false,"internalType":"uint256"},{"name":"amount0Out","type":"uint256","indexed":false,"internalType":"uint256"},{"name":"amount1Out","type":"uint256","indexed":false,"internalType":"uint256"},{"name":"to","type":"address","indexed":true,"internalType":"address"}],"anonymous":false},{"type":"event","name":"Sync","inputs":[{"name":"reserve0","type":"uint112","indexed":false,"internalType":"uint112"},{"name":"reserve1","type":"uint112","indexed":false,"internalType":"uint112"}],"anonymous":false},{"type":"event","name":"Transfer","inputs":[{"name":"from","type":"address","indexed":true,"internalType":"address"},{"name":"to","type":"address","indexed":true,"internalType":"address"},{"name":"value","type":"uint256","indexed":false,"internalType":"uint256"}],"anonymous":false},{"type":"error","name":"ERC20InsufficientAllowance","inputs":[{"name":"spender","type":"address","internalType":"address"},{"name":"allowance","type":"uint256","internalType":"uint256"},{"name":"needed","type":"uint256","internalType":"uint256"}]},{"type":"error","name":"ERC20InsufficientBalance","inputs":[{"name":"sender","type":"address","internalType":"address"},{"name":"balance","type":"uint256","internalType":"uint256"},{"name":"needed","type":"uint256","internalType":"uint256"}]},{"type":"error","name":"ERC20InvalidApprover","inputs":[{"name":"approver","type":"address","internalType":"address"}]},{"type":"error","name":"ERC20InvalidReceiver","inputs":[{"name":"receiver","type":"address","internalType":"address"}]},{"type":"error","name":"ERC20InvalidSender","inputs":[{"name":"sender","type":"address","internalType":"address"}]},{"type":"error","name":"ERC20InvalidSpender","inputs":[{"name":"spender","type":"address","internalType":"address"}]},{"type":"error","name":"ReentrancyGuardReentrantCall","inputs":[]}],"bytecode":{"object":"0x60806040523461034557604080519081016001600160401b0381118282101761024d576040908152600c82526b26b934bcb0a334902830b4b960a11b602083015280519081016001600160401b0381118282101761024d57604052600681526504d46492d4c560d41b602082015281516001600160401b03811161024d57600354600181811c9116801561033b575b602082101461022f57601f81116102cd575b50602092601f821160011461026c57928192935f92610261575b50508160011b915f199060031b1c1916176003555b80516001600160401b03811161024d57600454600181811c91168015610243575b602082101461022f57601f81116101c1575b50602091601f8211600114610161579181925f92610156575b50508160011b915f199060031b1c1916176004555b6001600555600680546001600160a01b0319163317905560405161181f908161034a8239f35b015190505f8061011b565b601f1982169260045f52805f20915f5b8581106101a957508360019510610191575b505050811b01600455610130565b01515f1960f88460031b161c191690555f8080610183565b91926020600181928685015181550194019201610171565b818111156101025760045f52601f820160051c7f8a35acfbc15ff81a39ae7d344fd709f28e8600b4aa8c65c6b64bfe7fe36bd19b60208410610227575b81601f9101920160051c03905f5b82811061021a575050610102565b5f8282015560010161020c565b5f91506101fe565b634e487b7160e01b5f52602260045260245ffd5b90607f16906100f0565b634e487b7160e01b5f52604160045260245ffd5b015190505f806100ba565b601f1982169360035f52805f20915f5b8681106102b5575083600195961061029d575b505050811b016003556100cf565b01515f1960f88460031b161c191690555f808061028f565b9192602060018192868501518155019401920161027c565b818111156100a05760035f52601f820160051c7fc2575a0e9e593c00f959f8c92f12db2869c3395a3b0502d05e2516446f71f85b60208410610333575b81601f9101920160051c03905f5b8281106103265750506100a0565b5f82820155600101610318565b5f915061030a565b90607f169061008e565b5f80fdfe60806040526004361015610011575f80fd5b5f3560e01c8063022c0d9f14610e9c57806306fdde0314610de15780630902f1ac14610da1578063095ea7b314610d1f5780630dfe168114610cf757806318160ddd14610cda57806323b872dd14610bfb578063313ce56714610be0578063485cc95514610b3f5780635909c0d514610b225780635a3d549314610b055780636a6278421461088657806370a082311461084f5780637464fc3d1461083257806389afcb441461042657806395d89b4114610322578063a9059cbb146102f1578063ba9a7a56146102d5578063c45a0155146102ad578063d21220a714610285578063dd62ed3e146102355763fff6cae91461010b575f80fd5b346101eb575f3660031901126101eb576101236114d9565b6007546040516370a0823160e01b815230600482015290602090829060249082906001600160a01b03165afa80156101f7575f90610202575b6008546040516370a0823160e01b81523060048201529250602090839060249082906001600160a01b03165afa9081156101f7575f916101bd575b6101b69250600954916001600160701b03808460701c169316916114f9565b6001600555005b90506020823d6020116101ef575b816101d86020938361142b565b810103126101eb576101b6915190610197565b5f80fd5b3d91506101cb565b6040513d5f823e3d90fd5b506020813d60201161022d575b8161021c6020938361142b565b810103126101eb576024905161015c565b3d915061020f565b346101eb5760403660031901126101eb5761024e6113d5565b6102566113eb565b6001600160a01b039182165f908152600160209081526040808320949093168252928352819020549051908152f35b346101eb575f3660031901126101eb576008546040516001600160a01b039091168152602090f35b346101eb575f3660031901126101eb576006546040516001600160a01b039091168152602090f35b346101eb575f3660031901126101eb5760206040516103e88152f35b346101eb5760403660031901126101eb5761031761030d6113d5565b60243590336115bc565b602060405160018152f35b346101eb575f3660031901126101eb576040515f6004548060011c9060018116801561041c575b602083108114610408578285529081156103e45750600114610386575b610382836103768185038261142b565b60405191829182611401565b0390f35b91905060045f527f8a35acfbc15ff81a39ae7d344fd709f28e8600b4aa8c65c6b64bfe7fe36bd19b915f905b8082106103ca57509091508101602001610376610366565b9192600181602092548385880101520191019092916103b2565b60ff191660208086019190915291151560051b840190910191506103769050610366565b634e487b7160e01b5f52602260045260245ffd5b91607f1691610349565b346101eb5760203660031901126101eb5761043f6113d5565b6104476114d9565b61044f611499565b506007546008546040516370a0823160e01b815230600482015293946001600160a01b0391821694939092909116602084602481845afa9384156101f7575f946107fe575b506040516370a0823160e01b815230600482015294602086602481845afa9586156101f7575f966107ca575b50305f525f6020526104f26104e66104e66104eb60405f2054986002549384918b611486565b6114bb565b9888611486565b94861515806107c1575b1561076d57301561075a57305f525f60205260405f20548181106107415790805f923084528360205203604083205580600254036002556040519081527fddf252ad1be2c89b69c2b068fc378daa952ba7f163c4a11628f55a4df523b3ef60203092a360405163a9059cbb60e01b81526001600160a01b0385166004820152602481018790526020816044815f875af180156101f757610724575b5060405163a9059cbb60e01b81526001600160a01b038516600482015260248101869052916020836044815f865af19081156101f7576024936020926106f9575b506040516370a0823160e01b815230600482015293849182905afa9182156101f7575f926106c4575b50906020602492604051938480926370a0823160e01b82523060048301525afa9182156101f7575f92610689575b509561063e92916040976114f9565b83519083825282602083015260018060a01b0316907fdccd412f0b1252819cb1fd330b93224ca42612892bb3f4f789976e6d81936496853392a3600160055582519182526020820152f35b929150956020833d6020116106bc575b816106a66020938361142b565b810103126101eb5791519195909190604061062f565b3d9150610699565b91506020823d6020116106f1575b816106df6020938361142b565b810103126101eb579051906020610601565b3d91506106d2565b61071890833d851161071d575b610710818361142b565b810190611461565b6105d8565b503d610706565b61073c9060203d60201161071d57610710818361142b565b610597565b63391434e360e21b5f523060045260245260445260645ffd5b634b637e8f60e11b5f525f60045260245ffd5b60405162461bcd60e51b815260206004820152602660248201527f4d7269796146693a20494e53554646494349454e545f4c49515549444954595f60448201526510955493915160d21b6064820152608490fd5b508515156104fc565b9095506020813d6020116107f6575b816107e66020938361142b565b810103126101eb575194876104c0565b3d91506107d9565b9093506020813d60201161082a575b8161081a6020938361142b565b810103126101eb57519286610494565b3d915061080d565b346101eb575f3660031901126101eb576020600c54604051908152f35b346101eb5760203660031901126101eb576001600160a01b036108706113d5565b165f525f602052602060405f2054604051908152f35b346101eb5760203660031901126101eb5761089f6113d5565b6108a76114d9565b60246108b1611499565b506007546040516370a0823160e01b81523060048201529360209185919082906001600160a01b03165afa9283156101f7575f93610ad0575b506008546040516370a0823160e01b8152306004820152939490602090859060249082906001600160a01b03165afa9384156101f7575f94610a9c575b506001600160701b0383169161093d8387611479565b936001600160701b0382166109528188611479565b946002549182155f14610a725750505061097461096f8587611486565b611653565b6103e7198101908111610a5e57956109906103e861dead611778565b8615610a0a576001600160a01b038416156109f7576020976109b5886109ba96611778565b6114f9565b604051918252838201527f4c209b5fc8ad50758f13e2e1088ba56a560dff690a1c6fef26394f4c03821c4f60403392a26001600555604051908152f35b63ec442f0560e01b5f525f60045260245ffd5b60405162461bcd60e51b815260206004820152602660248201527f4d7269796146693a20494e53554646494349454e545f4c49515549444954595f60448201526513525395115160d21b6064820152608490fd5b634e487b7160e01b5f52601160045260245ffd5b6104e6610a86610a8d936104e6868c611486565b9388611486565b90818082109118021895610990565b9093506020813d602011610ac8575b81610ab86020938361142b565b810103126101eb57519285610927565b3d9150610aab565b92506020833d602011610afd575b81610aeb6020938361142b565b810103126101eb5760249251926108ea565b3d9150610ade565b346101eb575f3660031901126101eb576020600b54604051908152f35b346101eb575f3660031901126101eb576020600a54604051908152f35b346101eb5760403660031901126101eb57610b586113d5565b610b606113eb565b6006549091906001600160a01b03163303610ba657600780546001600160a01b039283166001600160a01b03199182161790915560088054939092169216919091179055005b60405162461bcd60e51b815260206004820152601260248201527126b934bcb0a3349d102327a92124a22222a760711b6044820152606490fd5b346101eb575f3660031901126101eb57602060405160128152f35b346101eb5760603660031901126101eb57610c146113d5565b610c1c6113eb565b6001600160a01b0382165f818152600160209081526040808320338452909152902054909260443592915f198110610c5a575b5061031793506115bc565b838110610cbf578415610cac573315610c9957610317945f52600160205260405f2060018060a01b0333165f526020528360405f209103905584610c4f565b634a1406b160e11b5f525f60045260245ffd5b63e602df0560e01b5f525f60045260245ffd5b8390637dc7a0d960e11b5f523360045260245260445260645ffd5b346101eb575f3660031901126101eb576020600254604051908152f35b346101eb575f3660031901126101eb576007546040516001600160a01b039091168152602090f35b346101eb5760403660031901126101eb57610d386113d5565b602435903315610cac576001600160a01b0316908115610c9957335f52600160205260405f20825f526020528060405f20556040519081527f8c5be1e5ebec7d5bd14f71427d1e84f3dd0314c0f7b2291e5b200ac8c7c3b92560203392a3602060405160018152f35b346101eb575f3660031901126101eb5760606001600160701b0363ffffffff610dc8611499565b9193908160405195168552166020840152166040820152f35b346101eb575f3660031901126101eb576040515f6003548060011c90600181168015610e92575b602083108114610408578285529081156103e45750600114610e3457610382836103768185038261142b565b91905060035f527fc2575a0e9e593c00f959f8c92f12db2869c3395a3b0502d05e2516446f71f85b915f905b808210610e7857509091508101602001610376610366565b919260018160209254838588010152019101909291610e60565b91607f1691610e08565b346101eb5760803660031901126101eb576044356001600160a01b038116906024356004358383036101eb5760643567ffffffffffffffff81116101eb57366023820112156101eb57806004013567ffffffffffffffff81116101eb57369101602401116101eb57610f0c6114d9565b8015801580916113cc575b1561137b57610f24611499565b506001600160701b038216929183851080611369575b15611324576007546008546001600160a01b039081169891169390898514158061131a575b156112df57879161127d575b81611213575b50506020602493604051948580926370a0823160e01b82523060048301525afa9283156101f7575f936111dc575b506020602497604051988980926370a0823160e01b82523060048301525afa9687156101f7575f976111a8575b50610fd78585611479565b8311156111a157610ff1610feb8686611479565b84611479565b965b6001600160701b038316946110088887611479565b82111561119a5761102261101c8988611479565b83611479565b955b8915801581611191575b15611141576103e88702908782046103e81488151715610a5e5760038c02908c82046003141715610a5e5761106291611479565b906103e88402918483046103e81485151715610a5e5760038902908982046003148a151715610a5e5761109b6110a1926110a795611479565b90611486565b92611486565b90620f4240820291808304620f42401490151715610a5e571061110f576110cd936114f9565b6040519384526020840152604083015260608201527fd78ad95fa46c994b6551d0da85fc275fe613ce37657fb8d5e3d130840159d82260803392a36001600555005b60405162461bcd60e51b815260206004820152600a6024820152694d7269796146693a204b60b01b6044820152606490fd5b60405162461bcd60e51b815260206004820152602260248201527f4d7269796146693a20494e53554646494349454e545f494e5055545f414d4f55604482015261139560f21b6064820152608490fd5b5087151561102e565b5f95611024565b5f96610ff3565b9096506020813d6020116111d4575b816111c46020938361142b565b810103126101eb57519588610fcc565b3d91506111b7565b9692506020873d60201161120b575b816111f86020938361142b565b810103126101eb57955191956020610f9f565b3d91506111eb565b60405163a9059cbb60e01b81526001600160a01b039190911660048201526024810191909152926020846044815f8c5af19081156101f757602494602092611260575b5093879150610f71565b61127690833d851161071d57610710818361142b565b508a611256565b60405163a9059cbb60e01b81526001600160a01b03821660048201526024810188905291506020826044815f895af19182156101f75788926112c0575b50610f6b565b6112d89060203d60201161071d57610710818361142b565b508a6112ba565b60405162461bcd60e51b81526020600482015260136024820152724d7269796146693a20494e56414c49445f544f60681b6044820152606490fd5b50888a1415610f5f565b60405162461bcd60e51b815260206004820152601f60248201527f4d7269796146693a20494e53554646494349454e545f4c4951554944495459006044820152606490fd5b506001600160701b0382168610610f3a565b60405162461bcd60e51b815260206004820152602360248201527f4d7269796146693a20494e53554646494349454e545f4f55545055545f414d4f60448201526215539560ea1b6064820152608490fd5b50821515610f17565b600435906001600160a01b03821682036101eb57565b602435906001600160a01b03821682036101eb57565b602060409281835280519182918282860152018484015e5f828201840152601f01601f1916010190565b90601f8019910116810190811067ffffffffffffffff82111761144d57604052565b634e487b7160e01b5f52604160045260245ffd5b908160209103126101eb575180151581036101eb5790565b91908203918211610a5e57565b81810292918115918404141715610a5e57565b6009546001600160701b038116916001600160701b038260701c169160e01c90565b81156114c5570490565b634e487b7160e01b5f52601260045260245ffd5b6002600554146114ea576002600555565b633ee5aeb560e01b5f5260045ffd5b915091506001600160701b03811115806115ab575b15611572577f1c411e9a96e071241c2f21f7726b17ae89e3cab4c78be50e062b03a9fffbbad1916001600160701b0380604093169182600954918360701b9060701b169163ffffffff60e01b16171780600955835192835260701c166020820152a1565b60405162461bcd60e51b81526020600482015260116024820152704d7269796146693a204f564552464c4f5760781b6044820152606490fd5b506001600160701b0382111561150e565b6001600160a01b031690811561075a576001600160a01b03169182156109f757815f525f60205260405f205481811061163a57817fddf252ad1be2c89b69c2b068fc378daa952ba7f163c4a11628f55a4df523b3ef92602092855f525f84520360405f2055845f525f825260405f20818154019055604051908152a3565b8263391434e360e21b5f5260045260245260445260645ffd5b600181111561177557806001600160801b821015611764575b600482600160401b611716941015611757575b64010000000081101561174a575b6201000081101561173d575b610100811015611731575b6010811015611725575b101561171d575b60030260011c6116c581846114bb565b0160011c6116d381846114bb565b0160011c6116e181846114bb565b0160011c6116ef81846114bb565b0160011c6116fd81846114bb565b0160011c61170b81846114bb565b0160011c80926114bb565b8111900390565b60011b6116b5565b811c9160021b916116ae565b60081c91811b916116a4565b60101c9160081b91611699565b60201c9160101b9161168d565b60401c9160201b9161167f565b5050608081901c600160401b61166c565b90565b60025490828201809211610a5e576002919091556001600160a01b0316905f907fddf252ad1be2c89b69c2b068fc378daa952ba7f163c4a11628f55a4df523b3ef90602090846117d45780600254036002555b604051908152a3565b848452838252604084208181540190556117cb56fea2646970667358221220fe784f3f610729562b6c54ddc849482f6a57b1e786c19ccacf666412b2a901a364736f6c63430008210033","linkReferences":{}},"methodIdentifiers":{"MINIMUM_LIQUIDITY()":"ba9a7a56","allowance(address,address)":"dd62ed3e","approve(address,uint256)":"095ea7b3","balanceOf(address)":"70a08231","burn(address)":"89afcb44","decimals()":"313ce567","factory()":"c45a0155","getReserves()":"0902f1ac","initialize(address,address)":"485cc955","kLast()":"7464fc3d","mint(address)":"6a627842","name()":"06fdde03","price0CumulativeLast()":"5909c0d5","price1CumulativeLast()":"5a3d5493","swap(uint256,uint256,address,bytes)":"022c0d9f","symbol()":"95d89b41","sync()":"fff6cae9","token0()":"0dfe1681","token1()":"d21220a7","totalSupply()":"18160ddd","transfer(address,uint256)":"a9059cbb","transferFrom(address,address,uint256)":"23b872dd"},"id":4}