{"abi":[{"type":"function","name":"aggregate","inputs":[{"name":"calls","type":"tuple[]","internalType":"struct Multicall.Call[]","components":[{"name":"target","type":"address","internalType":"address"},{"name":"callData","type":"bytes","internalType":"bytes"}]}],"outputs":[{"name":"blockNumber","type":"uint256","internalType":"uint256"},{"name":"returnData","type":"bytes[]","internalType":"bytes[]"}],"stateMutability":"nonpayable"},{"type":"function","name":"tryAggregate","inputs":[{"name":"requireSuccess","type":"bool","internalType":"bool"},{"name":"calls","type":"tuple[]","internalType":"struct Multicall.Call[]","components":[{"name":"target","type":"address","internalType":"address"},{"name":"callData","type":"bytes","internalType":"bytes"}]}],"outputs":[{"name":"returnData","type":"tuple[]","internalType":"struct Multicall.Result[]","components":[{"name":"success","type":"bool","internalType":"bool"},{"name":"returnData","type":"bytes","internalType":"bytes"}]}],"stateMutability":"nonpayable"}],"bytecode":{"object":"0x608080604052346015576105b8908161001a8239f35b5f80fdfe60806040526004361015610011575f80fd5b5f3560e01c8063252dba421461020d5763bce38bd71461002f575f80fd5b346102095760403660031901126102095760043580151581036102095760243567ffffffffffffffff81116102095761006c903690600401610423565b80519161008061007b846103ef565b6103c9565b92808452610090601f19916103ef565b015f5b8181106101e95750505f5b825181101561016f5781905f806001600160a01b036100bd8488610535565b51511660206100cc8589610535565b5101519082602083519301915af16100e261055d565b92610119575b6001926100f3610395565b911515825260208201526101078287610535565b526101128186610535565b500161009e565b806100e85760405162461bcd60e51b815260206004820152602360248201527f4d756c746963616c6c207472794167677265676174653a2063616c6c206661696044820152621b195960ea1b6064820152608490fd5b836040518091602082016020835281518091526040830190602060408260051b8601019301915f905b8282106101a757505050500390f35b919360019193955060206101d98192603f198a82030186526040838a5180511515845201519181858201520190610511565b9601920192018594939192610198565b6020906101f4610395565b5f815260608382015282828801015201610093565b5f80fd5b346102095760203660031901126102095760043567ffffffffffffffff81116102095761023e903690600401610423565b80519061024d61007b836103ef565b9180835261025d601f19916103ef565b015f5b8181106103845750505f5b8151811015610317575f806001600160a01b036102888486610535565b51511660206102978587610535565b5101519082602083519301915af1906102ae61055d565b91156102d3576001916102c18286610535565b526102cc8185610535565b500161026b565b606460405162461bcd60e51b815260206004820152602060248201527f4d756c746963616c6c206167677265676174653a2063616c6c206661696c65646044820152fd5b826040518091604082014383526040602084015281518091526060830190602060608260051b8601019301915f905b82821061035557505050500390f35b919360019193955060206103748192605f198a82030186528851610511565b9601920192018594939192610346565b806060602080938701015201610260565b604051906040820182811067ffffffffffffffff8211176103b557604052565b634e487b7160e01b5f52604160045260245ffd5b6040519190601f01601f1916820167ffffffffffffffff8111838210176103b557604052565b67ffffffffffffffff81116103b55760051b60200190565b67ffffffffffffffff81116103b557601f01601f191660200190565b9080601f830112156102095781359161043e61007b846103ef565b9260208085838152019160051b830101918383116102095760208101915b83831061046b57505050505090565b823567ffffffffffffffff8111610209578201906040828703601f19011261020957610495610395565b9160208101356001600160a01b0381168103610209578352604081013567ffffffffffffffff81116102095760209101019086601f83011215610209578135926104e161007b85610407565b8481528860208686010111610209575f60208681978280980183860137830101528382015281520192019161045c565b805180835260209291819084018484015e5f828201840152601f01601f1916010190565b80518210156105495760209160051b010190565b634e487b7160e01b5f52603260045260245ffd5b3d1561057d573d9061057161007b83610407565b9182523d5f602084013e565b60609056fea2646970667358221220d4c59233feedbcfd0dd18d787576d26100b2ca9dfe10520278d467de294a48c464736f6c63430008210033","linkReferences":{}},"methodIdentifiers":{"aggregate((address,bytes)[])":"252dba42","tryAggregate(bool,(address,bytes)[])":"bce38bd7"},"id":2}