{"abi":[{"type":"constructor","inputs":[{"name":"_factory","type":"address","internalType":"address"},{"name":"_WETH","type":"address","internalType":"address"}],"stateMutability":"nonpayable"},{"type":"receive","stateMutability":"payable"},{"type":"function","name":"WETH","inputs":[],"outputs":[{"name":"","type":"address","internalType":"address"}],"stateMutability":"view"},{"type":"function","name":"addLiquidity","inputs":[{"name":"tokenA","type":"address","internalType":"address"},{"name":"tokenB","type":"address","internalType":"address"},{"name":"amountADesired","type":"uint256","internalType":"uint256"},{"name":"amountBDesired","type":"uint256","internalType":"uint256"},{"name":"amountAMin","type":"uint256","internalType":"uint256"},{"name":"amountBMin","type":"uint256","internalType":"uint256"},{"name":"to","type":"address","internalType":"address"},{"name":"deadline","type":"uint256","internalType":"uint256"}],"outputs":[{"name":"amountA","type":"uint256","internalType":"uint256"},{"name":"amountB","type":"uint256","internalType":"uint256"},{"name":"liquidity","type":"uint256","internalType":"uint256"}],"stateMutability":"nonpayable"},{"type":"function","name":"addLiquidityETH","inputs":[{"name":"token","type":"address","internalType":"address"},{"name":"amountTokenDesired","type":"uint256","internalType":"uint256"},{"name":"amountTokenMin","type":"uint256","internalType":"uint256"},{"name":"amountETHMin","type":"uint256","internalType":"uint256"},{"name":"to","type":"address","internalType":"address"},{"name":"deadline","type":"uint256","internalType":"uint256"}],"outputs":[{"name":"amountToken","type":"uint256","internalType":"uint256"},{"name":"amountETH","type":"uint256","internalType":"uint256"},{"name":"liquidity","type":"uint256","internalType":"uint256"}],"stateMutability":"payable"},{"type":"function","name":"factory","inputs":[],"outputs":[{"name":"","type":"address","internalType":"address"}],"stateMutability":"view"},{"type":"function","name":"getAmountsIn","inputs":[{"name":"amountOut","type":"uint256","internalType":"uint256"},{"name":"path","type":"address[]","internalType":"address[]"}],"outputs":[{"name":"amounts","type":"uint256[]","internalType":"uint256[]"}],"stateMutability":"view"},{"type":"function","name":"getAmountsOut","inputs":[{"name":"amountIn","type":"uint256","internalType":"uint256"},{"name":"path","type":"address[]","internalType":"address[]"}],"outputs":[{"name":"amounts","type":"uint256[]","internalType":"uint256[]"}],"stateMutability":"view"},{"type":"function","name":"removeLiquidity","inputs":[{"name":"tokenA","type":"address","internalType":"address"},{"name":"tokenB","type":"address","internalType":"address"},{"name":"liquidity","type":"uint256","internalType":"uint256"},{"name":"amountAMin","type":"uint256","internalType":"uint256"},{"name":"amountBMin","type":"uint256","internalType":"uint256"},{"name":"to","type":"address","internalType":"address"},{"name":"deadline","type":"uint256","internalType":"uint256"}],"outputs":[{"name":"amountA","type":"uint256","internalType":"uint256"},{"name":"amountB","type":"uint256","internalType":"uint256"}],"stateMutability":"nonpayable"},{"type":"function","name":"removeLiquidityETH","inputs":[{"name":"token","type":"address","internalType":"address"},{"name":"liquidity","type":"uint256","internalType":"uint256"},{"name":"amountTokenMin","type":"uint256","internalType":"uint256"},{"name":"amountETHMin","type":"uint256","internalType":"uint256"},{"name":"to","type":"address","internalType":"address"},{"name":"deadline","type":"uint256","internalType":"uint256"}],"outputs":[{"name":"amountToken","type":"uint256","internalType":"uint256"},{"name":"amountETH","type":"uint256","internalType":"uint256"}],"stateMutability":"nonpayable"},{"type":"function","name":"swapExactETHForTokens","inputs":[{"name":"amountOutMin","type":"uint256","internalType":"uint256"},{"name":"path","type":"address[]","internalType":"address[]"},{"name":"to","type":"address","internalType":"address"},{"name":"deadline","type":"uint256","internalType":"uint256"}],"outputs":[{"name":"amounts","type":"uint256[]","internalType":"uint256[]"}],"stateMutability":"payable"},{"type":"function","name":"swapExactTokensForETH","inputs":[{"name":"amountIn","type":"uint256","internalType":"uint256"},{"name":"amountOutMin","type":"uint256","internalType":"uint256"},{"name":"path","type":"address[]","internalType":"address[]"},{"name":"to","type":"address","internalType":"address"},{"name":"deadline","type":"uint256","internalType":"uint256"}],"outputs":[{"name":"amounts","type":"uint256[]","internalType":"uint256[]"}],"stateMutability":"nonpayable"},{"type":"function","name":"swapExactTokensForTokens","inputs":[{"name":"amountIn","type":"uint256","internalType":"uint256"},{"name":"amountOutMin","type":"uint256","internalType":"uint256"},{"name":"path","type":"address[]","internalType":"address[]"},{"name":"to","type":"address","internalType":"address"},{"name":"deadline","type":"uint256","internalType":"uint256"}],"outputs":[{"name":"amounts","type":"uint256[]","internalType":"uint256[]"}],"stateMutability":"nonpayable"},{"type":"error","name":"SafeERC20FailedOperation","inputs":[{"name":"token","type":"address","internalType":"address"}]}],"bytecode":{"object":"0x60c0346100e857601f611f0238819003918201601f19168301916001600160401b038311848410176100ec5780849260409485528339810103126100e857610052602061004b83610100565b9201610100565b9060805260a052604051611ded9081610115823960805181818161012b0152818161037a01528181610469015281816104af01528181610530015281816106f2015281816108c7015281816109c301528181610c3c01528181610e01015281816117510152611943015260a051818181601e0152818160f401528181610629015281816106c101528181610c080152610dd20152f35b5f80fd5b634e487b7160e01b5f52604160045260245ffd5b51906001600160a01b03821682036100e85756fe6080604052600436101561004e575b3615610018575f80fd5b61004c337f00000000000000000000000000000000000000000000000000000000000000006001600160a01b0316146112f0565b005b5f5f3560e01c806302751cec14610da957806318cbafe514610bba5780631f00ca74146109b157806338ed1739146108a05780637ff36ab514610658578063ad5c464814610613578063baa2abde146104de578063c45a015514610499578063d06ca61f14610451578063e8e33700146103025763f305d719146100d2575061000e565b6100f261011d916100e236610f93565b979396909792919242111561117f565b7f00000000000000000000000000000000000000000000000000000000000000009534908786611916565b9490936101628561014f83867f0000000000000000000000000000000000000000000000000000000000000000611646565b94859033906001600160a01b03166116fc565b6001600160a01b0316803b156102f357604051630d0e30db60e41b815284816004818a865af180156102f7579085916102de575b505060405163a9059cbb60e01b81526001600160a01b038416600482015260248101879052906020908290604490829088905af19081156102d3576020926101ea86959360249387916102a6575b506112f0565b6040516335313c2160e11b81526001600160a01b0391821660048201529586938492165af190811561029a5790610262575b610246915083341161024a575b604051938493846040919493926060820195825260208201520152565b0390f35b61025d61025785346111c4565b336113bb565b610229565b506020813d602011610292575b8161027c60209383611092565b8101031261028e57610246905161021c565b5f80fd5b3d915061026f565b604051903d90823e3d90fd5b6102c69150863d88116102cc575b6102be8183611092565b8101906112d8565b5f6101e4565b503d6102b4565b6040513d86823e3d90fd5b816102e891611092565b6102f357835f610196565b8380fd5b6040513d87823e3d90fd5b503461044e5761010036600319011261044e5761031d610f67565b90610326610f7d565b60c4356001600160a01b0381169081900361044c57916020819260246103c3956103544260e435101561117f565b61036a60a435608435606435604435878d611916565b89856103b361039e859c9598859e7f0000000000000000000000000000000000000000000000000000000000000000611646565b978893849033906001600160a01b03166116fc565b33906001600160a01b03166116fc565b6040516335313c2160e11b815260048101919091529485928391906001600160a01b03165af190811561029a5790610418575b6102469150604051938493846040919493926060820195825260208201520152565b506020813d602011610444575b8161043260209383611092565b8101031261028e5761024690516103f6565b3d9150610425565b825b80fd5b503461044e5761024661048d6104663661113b565b907f00000000000000000000000000000000000000000000000000000000000000006114f2565b60405191829182611059565b503461044e578060031936011261044e576040517f00000000000000000000000000000000000000000000000000000000000000006001600160a01b03168152602090f35b503461044e5760e036600319011261044e57806104f9610f67565b610501610f7d565b60a4356001600160a01b038116919082900361060e5761055460249160409461052e4260c435101561117f565b7f0000000000000000000000000000000000000000000000000000000000000000611646565b6001600160a01b038116929061056f906044359033866116fc565b8351948593849263226bf2d160e21b845260048401525af1801561060357829183916105c2575b604083836105a860643583101561130b565b6105b6608435821015611363565b82519182526020820152f35b9150506040813d6040116105fb575b816105de60409383611092565b810103126105f75760409150602081519101515f610596565b5080fd5b3d91506105d1565b6040513d84823e3d90fd5b505050fd5b503461044e578060031936011261044e576040517f00000000000000000000000000000000000000000000000000000000000000006001600160a01b03168152602090f35b50608036600319011261044e5760243567ffffffffffffffff81116105f757610685903690600401610fd9565b90604435906001600160a01b03821682036102f3576106a842606435101561117f565b821561088c576106b7816111e5565b6001600160a01b037f0000000000000000000000000000000000000000000000000000000000000000811694916106f0911685146111f9565b7f0000000000000000000000000000000000000000000000000000000000000000936107276107203684866110e0565b34876114f2565b9485515f1981019081116108785761074e906107466004359189611266565b51101561127a565b8661075887611245565b51833b156105f7578160049160405192838092630d0e30db60e41b8252885af180156106035761085f575b505061078e846111e5565b836001101561084b57916107b36020926107f2946107ad8589016111e5565b91611646565b906107bd88611245565b5160405163a9059cbb60e01b81526001600160a01b0390931660048401526024830152909283919082908a9082906044820190565b03925af1908115610840579161081a61048d95949261082194610246999161082757506112f0565b36916110e0565b83611747565b6102c6915060203d6020116102cc576102be8183611092565b6040513d88823e3d90fd5b634e487b7160e01b88526032600452602488fd5b8161086991611092565b61087457865f610783565b8680fd5b634e487b7160e01b88526011600452602488fd5b634e487b7160e01b84526032600452602484fd5b503461044e576108c26108b23661100a565b969294919395909642111561117f565b6108f97f0000000000000000000000000000000000000000000000000000000000000000916108f23686886110e0565b90836114f2565b9485515f19810190811161099d57906107466109159288611266565b8215610989576001600160a01b0361092c856111e5565b1691610937856111e5565b90846001101561097557509261081a6108219361096387946102469a976107ad602061048d9b016111e5565b61096c89611245565b519133906116fc565b634e487b7160e01b81526032600452602490fd5b634e487b7160e01b82526032600452602482fd5b634e487b7160e01b84526011600452602484fd5b503461044e576109c03661113b565b917f0000000000000000000000000000000000000000000000000000000000000000926109f1600282511015611474565b6109fb81516114c0565b9283515f19810190811161099d57610a139085611266565b5280515f198101908111610b0757805b610a3557604051806102468682611059565b5f19810181811161099d57610a726001600160a01b03610a558386611266565b51166001600160a01b03610a698587611266565b51169088611b0e565b90610a7d8488611266565b51908115610b60578181610aa192151580610b57575b610a9c90611bdb565b611c38565b916103e88302928084046103e81490151715610b435790610ac1916111c4565b906103e58202918083046103e51490151715610b2f5790610ae191611c4b565b9060018201809211610b1b57610af79086611266565b528015610b07575f190180610a23565b634e487b7160e01b83526011600452602483fd5b634e487b7160e01b85526011600452602485fd5b634e487b7160e01b86526011600452602486fd5b634e487b7160e01b87526011600452602487fd5b50841515610a93565b60405162461bcd60e51b815260206004820152602c60248201527f556e697377617056324c6962726172793a20494e53554646494349454e545f4f60448201526b155514155517d05353d5539560a21b6064820152608490fd5b503461044e57610bdd610bcc3661100a565b96949395909692919242111561117f565b5f198201828111610b1b5782811015610d9557610bfe9060051b82016111e5565b6001600160a01b037f000000000000000000000000000000000000000000000000000000000000000081169491610c37911685146111f9565b610c677f0000000000000000000000000000000000000000000000000000000000000000916108f23686866110e0565b9586515f198101908111610b435790610746610c839289611266565b8215610d95576001600160a01b03610c9a836111e5565b1690610ca5836111e5565b8460011015610d8157610cdd92610ccb8593610cd4936107ad6020610ce39a99016111e5565b61096c8a611245565b309236916110e0565b85611747565b82515f198101908111610b0757610cfa9084611266565b51813b1561044c578291602483926040519485938492632e1a7d4d60e01b845260048401525af1801561060357908291610d6c575b505081515f19810191908211610d58575061024692610d5161048d9284611266565b51906113bb565b634e487b7160e01b81526011600452602490fd5b81610d7691611092565b61044e57805f610d2f565b634e487b7160e01b87526032600452602487fd5b634e487b7160e01b85526032600452602485fd5b3461028e5760405f610dba36610f93565b96909694929442111593610dcd8561117f565b610df77f00000000000000000000000000000000000000000000000000000000000000009561117f565b610e38610e2586867f0000000000000000000000000000000000000000000000000000000000000000611646565b6001600160a01b038116929033846116fc565b602482518098819363226bf2d160e21b83523060048401525af1938415610f1a575f955f95610f25575b50610ec29291610e77610e7f9288101561130b565b851015611363565b60405163a9059cbb60e01b60208201526001600160a01b03871660248201526044808201879052815290610eb4606483611092565b6001600160a01b0316611aa2565b6001600160a01b0316803b1561028e575f8091602460405180948193632e1a7d4d60e01b83528760048401525af18015610f1a576040946105b6928492610f0a575b506113bb565b5f610f1491611092565b5f610f04565b6040513d5f823e3d90fd5b95509350906040853d604011610f5f575b81610f4360409383611092565b8101031261028e57845160209095015193909190610ec2610e62565b3d9150610f36565b600435906001600160a01b038216820361028e57565b602435906001600160a01b038216820361028e57565b60c090600319011261028e576004356001600160a01b038116810361028e57906024359060443590606435906084356001600160a01b038116810361028e579060a43590565b9181601f8401121561028e5782359167ffffffffffffffff831161028e576020808501948460051b01011161028e57565b60a060031982011261028e5760043591602435916044359067ffffffffffffffff821161028e5761103d91600401610fd9565b90916064356001600160a01b038116810361028e579060843590565b60206040818301928281528451809452019201905f5b81811061107c5750505090565b825184526020938401939092019160010161106f565b90601f8019910116810190811067ffffffffffffffff8211176110b457604052565b634e487b7160e01b5f52604160045260245ffd5b67ffffffffffffffff81116110b45760051b60200190565b92916110eb826110c8565b936110f96040519586611092565b602085848152019260051b810191821161028e57915b81831061111b57505050565b82356001600160a01b038116810361028e5781526020928301920161110f565b90604060031983011261028e57600435916024359067ffffffffffffffff821161028e578060238301121561028e5781602461117c936004013591016110e0565b90565b1561118657565b60405162461bcd60e51b8152602060048201526016602482015275135c9a5e58519a549bdd5d195c8e881156141254915160521b6044820152606490fd5b919082039182116111d157565b634e487b7160e01b5f52601160045260245ffd5b356001600160a01b038116810361028e5790565b1561120057565b60405162461bcd60e51b815260206004820152601b60248201527f4d726979614669526f757465723a20494e56414c49445f5041544800000000006044820152606490fd5b8051156112525760200190565b634e487b7160e01b5f52603260045260245ffd5b80518210156112525760209160051b010190565b1561128157565b60405162461bcd60e51b815260206004820152602960248201527f4d726979614669526f757465723a20494e53554646494349454e545f4f555450604482015268155517d05353d5539560ba1b6064820152608490fd5b9081602091031261028e5751801515810361028e5790565b156112f757565b634e487b7160e01b5f52600160045260245ffd5b1561131257565b60405162461bcd60e51b8152602060048201526024808201527f4d726979614669526f757465723a20494e53554646494349454e545f415f414d60448201526313d5539560e21b6064820152608490fd5b1561136a57565b60405162461bcd60e51b8152602060048201526024808201527f4d726979614669526f757465723a20494e53554646494349454e545f425f414d60448201526313d5539560e21b6064820152608490fd5b5f8091602093604051906113cf8683611092565b83825285820191601f19870136843751925af13d1561146f573d67ffffffffffffffff81116110b4576040519061140f601f8201601f1916850183611092565b81525f833d92013e5b156114205750565b6084906040519062461bcd60e51b82526004820152602260248201527f4d726979614669526f757465723a204554485f5452414e534645525f4641494c604482015261115160f21b6064820152fd5b611418565b1561147b57565b60405162461bcd60e51b815260206004820152601e60248201527f556e697377617056324c6962726172793a20494e56414c49445f5041544800006044820152606490fd5b906114ca826110c8565b6114d76040519182611092565b82815280926114e8601f19916110c8565b0190602036910137565b9291611502600282511015611474565b61150c81516114c0565b9161151683611245565b525f5b81515f1981019081116111d157811015611640576001600160a01b0361153f8284611266565b51169060018101918282116111d157611564906001600160a01b03610a698587611266565b92906115708387611266565b5180156115e7578115948515806115de575b61158b90611bdb565b6103e582029182046103e5036111d1576115a59082611c38565b946103e883029283046103e81417156111d15781018091116111d1576115d06115d791600195611c4b565b9186611266565b5201611519565b50801515611582565b60405162461bcd60e51b815260206004820152602b60248201527f556e697377617056324c6962726172793a20494e53554646494349454e545f4960448201526a1394155517d05353d5539560aa1b6064820152608490fd5b50509150565b9161165091611c69565b6040519060208201926001600160601b03199060601b1683526001600160601b03199060601b1660348201526028815261168b604882611092565b5190209060405191602083019160ff60f81b83526001600160601b03199060601b16602184015260358301527f890f760c6d85ba6ad0c3fe380a728886e285127ac762e94aa24ffa61a14505a66055830152605582526116ec607583611092565b905190206001600160a01b031690565b6040516323b872dd60e01b60208201526001600160a01b03928316602482015292909116604483015260648083019390935291815261174591611740608483611092565b611aa2565b565b602093925f9291907f0000000000000000000000000000000000000000000000000000000000000000845b84515f1981019081116111d1578110156118ed576001600160a01b036117988287611266565b511690600181018082116111d1576001600160a01b036117b88289611266565b51166117cf6117c78286611c69565b509288611266565b51916001600160a01b031684036118e6575f91935b885160011981019081116111d1578410156118dc57600284018085116111d15761183990611828906001600160a01b039061181f908d611266565b51168489611646565b925b6001600160a01b039288611646565b16604051946118488d87611092565b5f86528c8601938b368637823b1561028e5760a45f95918692604051998a978896879463022c0d9f60e01b86526004860152602485015260018060a01b03166044840152608060648401525180918160848501528484015e8181018301849052601f01601f191681010301925af1918215610f1a576001926118cc575b5001611772565b5f6118d691611092565b5f6118c5565b611839879261182a565b5f936117e4565b5050505050509050565b9081602091031261028e57516001600160a01b038116810361028e5790565b60405163e6a4390560e01b81526001600160a01b03828116600483015283811660248301529396949594937f0000000000000000000000000000000000000000000000000000000000000000908116939291602081604481885afa908115610f1a575f91611a83575b506001600160a01b031615611a0b575b6119999350611b0e565b9290801580611a03575b156119b057505050509091565b6119bf84828897959697611d37565b948386116119db57505050506119d790821015611363565b9091565b8395506119d79450906119f2916119fb9394611d37565b948511156112f0565b83101561130b565b5083156119a3565b6040516364e329cb60e11b81526001600160a01b0383811660048301528416602482015293602090859060449082905f905af1938415610f1a5761199994611a54575b5061198f565b611a759060203d602011611a7c575b611a6d8183611092565b8101906118f7565b505f611a4e565b503d611a63565b611a9c915060203d602011611a7c57611a6d8183611092565b5f61197f565b905f602091828151910182855af115610f1a575f513d611af157506001600160a01b0381163b155b611ad15750565b635274afe760e01b5f9081526001600160a01b0391909116600452602490fd5b60011415611aca565b51906001600160701b038216820361028e57565b906060600492611b33611b218685611c69565b50956001600160a01b03928590611646565b1660405193848092630240bc6b60e21b82525afa918215610f1a575f905f93611b7c575b506001600160701b03928316939216916001600160a01b039182169116036119d75791565b9250506060823d606011611bd3575b81611b9860609383611092565b8101031261028e57611ba982611afa565b6040611bb760208501611afa565b93015163ffffffff81160361028e576001600160701b03611b57565b3d9150611b8b565b15611be257565b60405162461bcd60e51b815260206004820152602860248201527f556e697377617056324c6962726172793a20494e53554646494349454e545f4c604482015267495155494449545960c01b6064820152608490fd5b818102929181159184041417156111d157565b8115611c55570490565b634e487b7160e01b5f52601260045260245ffd5b9091906001600160a01b03808416908216808214611ce4571015611cdf57915b906001600160a01b03831615611c9b57565b606460405162461bcd60e51b815260206004820152602060248201527f556e69737761705632466163746f72793a205a45524f5f4144445245535345536044820152fd5b611c89565b60405162461bcd60e51b815260206004820152602560248201527f556e697377617056324c6962726172793a204944454e544943414c5f41444452604482015264455353455360d81b6064820152608490fd5b8015611d645761117c92611d569183151580611d5b57610a9c90611bdb565b611c4b565b50811515610a93565b60405162461bcd60e51b815260206004820152602560248201527f556e697377617056324c6962726172793a20494e53554646494349454e545f416044820152641353d5539560da1b6064820152608490fdfea2646970667358221220336d2571dff18c9099006b367e6388a1c873b7fb0971bdc6d3a9f5f190aa3dae64736f6c63430008210033","linkReferences":{}},"methodIdentifiers":{"WETH()":"ad5c4648","addLiquidity(address,address,uint256,uint256,uint256,uint256,address,uint256)":"e8e33700","addLiquidityETH(address,uint256,uint256,uint256,address,uint256)":"f305d719","factory()":"c45a0155","getAmountsIn(uint256,address[])":"1f00ca74","getAmountsOut(uint256,address[])":"d06ca61f","removeLiquidity(address,address,uint256,uint256,uint256,address,uint256)":"baa2abde","removeLiquidityETH(address,uint256,uint256,uint256,address,uint256)":"02751cec","swapExactETHForTokens(uint256,address[],address,uint256)":"7ff36ab5","swapExactTokensForETH(uint256,uint256,address[],address,uint256)":"18cbafe5","swapExactTokensForTokens(uint256,uint256,address[],address,uint256)":"38ed1739"},"id":4}